{
  "contractName": "BlindAuction",
  "abi": [
    {
      "inputs": [
        {
          "internalType": "uint256",
          "name": "biddingTime",
          "type": "uint256"
        },
        {
          "internalType": "uint256",
          "name": "revealTime",
          "type": "uint256"
        },
        {
          "internalType": "address payable",
          "name": "beneficiaryAddress",
          "type": "address"
        }
      ],
      "stateMutability": "nonpayable",
      "type": "constructor"
    },
    {
      "inputs": [],
      "name": "AuctionEndAlreadyCalled",
      "type": "error"
    },
    {
      "inputs": [
        {
          "internalType": "uint256",
          "name": "time",
          "type": "uint256"
        }
      ],
      "name": "TooEarly",
      "type": "error"
    },
    {
      "inputs": [
        {
          "internalType": "uint256",
          "name": "time",
          "type": "uint256"
        }
      ],
      "name": "TooLate",
      "type": "error"
    },
    {
      "inputs": [],
      "name": "UnmatchedLength",
      "type": "error"
    },
    {
      "anonymous": false,
      "inputs": [
        {
          "indexed": false,
          "internalType": "address",
          "name": "winner",
          "type": "address"
        },
        {
          "indexed": false,
          "internalType": "uint256",
          "name": "highestBid",
          "type": "uint256"
        }
      ],
      "name": "AuctionEnded",
      "type": "event"
    },
    {
      "anonymous": false,
      "inputs": [
        {
          "indexed": false,
          "internalType": "uint256",
          "name": "index",
          "type": "uint256"
        }
      ],
      "name": "BidIndex",
      "type": "event"
    },
    {
      "anonymous": false,
      "inputs": [
        {
          "indexed": false,
          "internalType": "address",
          "name": "recipient",
          "type": "address"
        },
        {
          "indexed": false,
          "internalType": "uint256",
          "name": "refund",
          "type": "uint256"
        }
      ],
      "name": "Refund",
      "type": "event"
    },
    {
      "anonymous": false,
      "inputs": [
        {
          "indexed": false,
          "internalType": "uint256",
          "name": "amount",
          "type": "uint256"
        }
      ],
      "name": "Withdraw",
      "type": "event"
    },
    {
      "inputs": [],
      "name": "beneficiary",
      "outputs": [
        {
          "internalType": "address payable",
          "name": "",
          "type": "address"
        }
      ],
      "stateMutability": "view",
      "type": "function",
      "constant": true
    },
    {
      "inputs": [],
      "name": "biddingEnd",
      "outputs": [
        {
          "internalType": "uint256",
          "name": "",
          "type": "uint256"
        }
      ],
      "stateMutability": "view",
      "type": "function",
      "constant": true
    },
    {
      "inputs": [
        {
          "internalType": "address",
          "name": "",
          "type": "address"
        },
        {
          "internalType": "uint256",
          "name": "",
          "type": "uint256"
        }
      ],
      "name": "bids",
      "outputs": [
        {
          "internalType": "bytes32",
          "name": "blindedBid",
          "type": "bytes32"
        },
        {
          "internalType": "uint256",
          "name": "deposit",
          "type": "uint256"
        }
      ],
      "stateMutability": "view",
      "type": "function",
      "constant": true
    },
    {
      "inputs": [],
      "name": "ended",
      "outputs": [
        {
          "internalType": "bool",
          "name": "",
          "type": "bool"
        }
      ],
      "stateMutability": "view",
      "type": "function",
      "constant": true
    },
    {
      "inputs": [],
      "name": "highestBid",
      "outputs": [
        {
          "internalType": "uint256",
          "name": "",
          "type": "uint256"
        }
      ],
      "stateMutability": "view",
      "type": "function",
      "constant": true
    },
    {
      "inputs": [],
      "name": "highestBidder",
      "outputs": [
        {
          "internalType": "address",
          "name": "",
          "type": "address"
        }
      ],
      "stateMutability": "view",
      "type": "function",
      "constant": true
    },
    {
      "inputs": [
        {
          "internalType": "address",
          "name": "",
          "type": "address"
        }
      ],
      "name": "pendingReturns",
      "outputs": [
        {
          "internalType": "uint256",
          "name": "",
          "type": "uint256"
        }
      ],
      "stateMutability": "view",
      "type": "function",
      "constant": true
    },
    {
      "inputs": [],
      "name": "revealEnd",
      "outputs": [
        {
          "internalType": "uint256",
          "name": "",
          "type": "uint256"
        }
      ],
      "stateMutability": "view",
      "type": "function",
      "constant": true
    },
    {
      "inputs": [
        {
          "internalType": "uint256",
          "name": "value",
          "type": "uint256"
        },
        {
          "internalType": "bool",
          "name": "fake",
          "type": "bool"
        },
        {
          "internalType": "bytes32",
          "name": "secret",
          "type": "bytes32"
        }
      ],
      "name": "createBlindedBid",
      "outputs": [
        {
          "internalType": "bytes32",
          "name": "",
          "type": "bytes32"
        }
      ],
      "stateMutability": "pure",
      "type": "function",
      "constant": true
    },
    {
      "inputs": [
        {
          "internalType": "bytes32",
          "name": "blindedBid",
          "type": "bytes32"
        }
      ],
      "name": "bid",
      "outputs": [],
      "stateMutability": "payable",
      "type": "function",
      "payable": true
    },
    {
      "inputs": [
        {
          "internalType": "uint256[]",
          "name": "values",
          "type": "uint256[]"
        },
        {
          "internalType": "bool[]",
          "name": "fakes",
          "type": "bool[]"
        },
        {
          "internalType": "bytes32[]",
          "name": "secrets",
          "type": "bytes32[]"
        }
      ],
      "name": "reveal",
      "outputs": [],
      "stateMutability": "nonpayable",
      "type": "function"
    },
    {
      "inputs": [],
      "name": "withdraw",
      "outputs": [],
      "stateMutability": "nonpayable",
      "type": "function"
    },
    {
      "inputs": [],
      "name": "auctionEnd",
      "outputs": [],
      "stateMutability": "nonpayable",
      "type": "function"
    }
  ],
  "bytecode": "0x60806040523480156200001157600080fd5b50604051620015eb380380620015eb83398181016040528101906200003791906200014f565b806000806101000a81548173ffffffffffffffffffffffffffffffffffffffff021916908373ffffffffffffffffffffffffffffffffffffffff1602179055508242620000859190620001da565b600381905550816003546200009b9190620001da565b60048190555050505062000237565b600080fd5b6000819050919050565b620000c481620000af565b8114620000d057600080fd5b50565b600081519050620000e481620000b9565b92915050565b600073ffffffffffffffffffffffffffffffffffffffff82169050919050565b60006200011782620000ea565b9050919050565b62000129816200010a565b81146200013557600080fd5b50565b60008151905062000149816200011e565b92915050565b6000806000606084860312156200016b576200016a620000aa565b5b60006200017b86828701620000d3565b93505060206200018e86828701620000d3565b9250506040620001a18682870162000138565b9150509250925092565b7f4e487b7100000000000000000000000000000000000000000000000000000000600052601160045260246000fd5b6000620001e782620000af565b9150620001f483620000af565b9250827fffffffffffffffffffffffffffffffffffffffffffffffffffffffffffffffff038211156200022c576200022b620001ab565b5b828201905092915050565b6113a480620002476000396000f3fe6080604052600436106100c25760003560e01c8063423b217f1161007f578063957bb1e011610059578063957bb1e014610245578063a6e6647714610261578063d2d53a9d1461028c578063d57bde79146102c9576100c2565b8063423b217f146101c6578063900f080a146101f157806391f901571461021a576100c2565b806301495c1c146100c757806312fa6feb1461010557806326b387bb146101305780632a24f46c1461016d57806338af3eed146101845780633ccfd60b146101af575b600080fd5b3480156100d357600080fd5b506100ee60048036038101906100e99190610cf3565b6102f4565b6040516100fc929190610d5b565b60405180910390f35b34801561011157600080fd5b5061011a610335565b6040516101279190610d9f565b60405180910390f35b34801561013c57600080fd5b5061015760048036038101906101529190610dba565b610348565b6040516101649190610de7565b60405180910390f35b34801561017957600080fd5b50610182610360565b005b34801561019057600080fd5b506101996104d2565b6040516101a69190610e23565b60405180910390f35b3480156101bb57600080fd5b506101c46104f6565b005b3480156101d257600080fd5b506101db61060a565b6040516101e89190610de7565b60405180910390f35b3480156101fd57600080fd5b5061021860048036038101906102139190610f4f565b610610565b005b34801561022657600080fd5b5061022f610952565b60405161023c9190611012565b60405180910390f35b61025f600480360381019061025a9190611059565b610978565b005b34801561026d57600080fd5b50610276610adb565b6040516102839190610de7565b60405180910390f35b34801561029857600080fd5b506102b360048036038101906102ae91906110b2565b610ae1565b6040516102c09190611105565b60405180910390f35b3480156102d557600080fd5b506102de610b17565b6040516102eb9190610de7565b60405180910390f35b6007602052816000526040600020818154811061031057600080fd5b9060005260206000209060020201600091509150508060000154908060010154905082565b600560009054906101000a900460ff1681565b60066020528060005260406000206000915090505481565b6004548042116103a757806040517f2a35a32400000000000000000000000000000000000000000000000000000000815260040161039e9190610de7565b60405180910390fd5b600560009054906101000a900460ff16156103ee576040517f61cfdcf800000000000000000000000000000000000000000000000000000000815260040160405180910390fd5b7fdaec4582d5d9595688c8c98545fdd1c696d41c6aeaeb636737e84ed2f5c00eda600160009054906101000a900473ffffffffffffffffffffffffffffffffffffffff16600254604051610443929190611120565b60405180910390a16001600560006101000a81548160ff02191690831515021790555060008054906101000a900473ffffffffffffffffffffffffffffffffffffffff1673ffffffffffffffffffffffffffffffffffffffff166108fc6002549081150290604051600060405180830381858888f193505050501580156104ce573d6000803e3d6000fd5b5050565b60008054906101000a900473ffffffffffffffffffffffffffffffffffffffff1681565b6000600660003373ffffffffffffffffffffffffffffffffffffffff1673ffffffffffffffffffffffffffffffffffffffff16815260200190815260200160002054905060008111156105d0576000600660003373ffffffffffffffffffffffffffffffffffffffff1673ffffffffffffffffffffffffffffffffffffffff168152602001908152602001600020819055503373ffffffffffffffffffffffffffffffffffffffff166108fc829081150290604051600060405180830381858888f193505050501580156105ce573d6000803e3d6000fd5b505b7f5b6b431d4476a211bb7d41c20d1aab9ae2321deee0d20be3d9fc9b1093fa6e3d816040516105ff9190610de7565b60405180910390a150565b60035481565b60035480421161065757806040517f2a35a32400000000000000000000000000000000000000000000000000000000815260040161064e9190610de7565b60405180910390fd5b60045480421061069e57806040517f691e56820000000000000000000000000000000000000000000000000000000081526004016106959190610de7565b60405180910390fd5b6000600760003373ffffffffffffffffffffffffffffffffffffffff1673ffffffffffffffffffffffffffffffffffffffff1681526020019081526020016000208054905090508089899050141580156106fb5750808787905014155b801561070a5750808585905014155b15610741576040517ff433488100000000000000000000000000000000000000000000000000000000815260040160405180910390fd5b600080600090505b828110156108c5576000600760003373ffffffffffffffffffffffffffffffffffffffff1673ffffffffffffffffffffffffffffffffffffffff16815260200190815260200160002082815481106107a4576107a3611149565b5b9060005260206000209060020201905060008060008e8e868181106107cc576107cb611149565b5b905060200201358d8d878181106107e6576107e5611149565b5b90506020020160208101906107fb9190611178565b8c8c8881811061080e5761080d611149565b5b905060200201359250925092508282826040516020016108309392919061122f565b6040516020818303038152906040528051906020012084600001541461085957505050506108b2565b836001015486610869919061129b565b95508115801561087d575082846001015410155b156108a15761088c3384610b1d565b156108a057828661089d91906112f1565b95505b5b6000801b8460000181905550505050505b80806108bd90611325565b915050610749565b503373ffffffffffffffffffffffffffffffffffffffff166108fc829081150290604051600060405180830381858888f1935050505015801561090c573d6000803e3d6000fd5b507fbb28353e4598c3b9199101a66e0989549b659a59a54d2c27fbb183f1932c8e6d338260405161093e929190611120565b60405180910390a150505050505050505050565b600160009054906101000a900473ffffffffffffffffffffffffffffffffffffffff1681565b6003548042106109bf57806040517f691e56820000000000000000000000000000000000000000000000000000000081526004016109b69190610de7565b60405180910390fd5b600760003373ffffffffffffffffffffffffffffffffffffffff1673ffffffffffffffffffffffffffffffffffffffff1681526020019081526020016000206040518060400160405280848152602001348152509080600181540180825580915050600190039060005260206000209060020201600090919091909150600082015181600001556020820151816001015550507f3bd46391458f5d10531acc811134848d588c0a58b92dc31b6c8a3cf9da67fd636001600760003373ffffffffffffffffffffffffffffffffffffffff1673ffffffffffffffffffffffffffffffffffffffff16815260200190815260200160002080549050610ac291906112f1565b604051610acf9190610de7565b60405180910390a15050565b60045481565b6000838383604051602001610af89392919061122f565b6040516020818303038152906040528051906020012090509392505050565b60025481565b60006002548211610b315760009050610c4f565b600073ffffffffffffffffffffffffffffffffffffffff16600160009054906101000a900473ffffffffffffffffffffffffffffffffffffffff1673ffffffffffffffffffffffffffffffffffffffff1614610c025760025460066000600160009054906101000a900473ffffffffffffffffffffffffffffffffffffffff1673ffffffffffffffffffffffffffffffffffffffff1673ffffffffffffffffffffffffffffffffffffffff1681526020019081526020016000206000828254610bfa919061129b565b925050819055505b8160028190555082600160006101000a81548173ffffffffffffffffffffffffffffffffffffffff021916908373ffffffffffffffffffffffffffffffffffffffff160217905550600190505b92915050565b600080fd5b600080fd5b600073ffffffffffffffffffffffffffffffffffffffff82169050919050565b6000610c8a82610c5f565b9050919050565b610c9a81610c7f565b8114610ca557600080fd5b50565b600081359050610cb781610c91565b92915050565b6000819050919050565b610cd081610cbd565b8114610cdb57600080fd5b50565b600081359050610ced81610cc7565b92915050565b60008060408385031215610d0a57610d09610c55565b5b6000610d1885828601610ca8565b9250506020610d2985828601610cde565b9150509250929050565b6000819050919050565b610d4681610d33565b82525050565b610d5581610cbd565b82525050565b6000604082019050610d706000830185610d3d565b610d7d6020830184610d4c565b9392505050565b60008115159050919050565b610d9981610d84565b82525050565b6000602082019050610db46000830184610d90565b92915050565b600060208284031215610dd057610dcf610c55565b5b6000610dde84828501610ca8565b91505092915050565b6000602082019050610dfc6000830184610d4c565b92915050565b6000610e0d82610c5f565b9050919050565b610e1d81610e02565b82525050565b6000602082019050610e386000830184610e14565b92915050565b600080fd5b600080fd5b600080fd5b60008083601f840112610e6357610e62610e3e565b5b8235905067ffffffffffffffff811115610e8057610e7f610e43565b5b602083019150836020820283011115610e9c57610e9b610e48565b5b9250929050565b60008083601f840112610eb957610eb8610e3e565b5b8235905067ffffffffffffffff811115610ed657610ed5610e43565b5b602083019150836020820283011115610ef257610ef1610e48565b5b9250929050565b60008083601f840112610f0f57610f0e610e3e565b5b8235905067ffffffffffffffff811115610f2c57610f2b610e43565b5b602083019150836020820283011115610f4857610f47610e48565b5b9250929050565b60008060008060008060608789031215610f6c57610f6b610c55565b5b600087013567ffffffffffffffff811115610f8a57610f89610c5a565b5b610f9689828a01610e4d565b9650965050602087013567ffffffffffffffff811115610fb957610fb8610c5a565b5b610fc589828a01610ea3565b9450945050604087013567ffffffffffffffff811115610fe857610fe7610c5a565b5b610ff489828a01610ef9565b92509250509295509295509295565b61100c81610c7f565b82525050565b60006020820190506110276000830184611003565b92915050565b61103681610d33565b811461104157600080fd5b50565b6000813590506110538161102d565b92915050565b60006020828403121561106f5761106e610c55565b5b600061107d84828501611044565b91505092915050565b61108f81610d84565b811461109a57600080fd5b50565b6000813590506110ac81611086565b92915050565b6000806000606084860312156110cb576110ca610c55565b5b60006110d986828701610cde565b93505060206110ea8682870161109d565b92505060406110fb86828701611044565b9150509250925092565b600060208201905061111a6000830184610d3d565b92915050565b60006040820190506111356000830185611003565b6111426020830184610d4c565b9392505050565b7f4e487b7100000000000000000000000000000000000000000000000000000000600052603260045260246000fd5b60006020828403121561118e5761118d610c55565b5b600061119c8482850161109d565b91505092915050565b6000819050919050565b6111c06111bb82610cbd565b6111a5565b82525050565b60008160f81b9050919050565b60006111de826111c6565b9050919050565b60006111f0826111d3565b9050919050565b61120861120382610d84565b6111e5565b82525050565b6000819050919050565b61122961122482610d33565b61120e565b82525050565b600061123b82866111af565b60208201915061124b82856111f7565b60018201915061125b8284611218565b602082019150819050949350505050565b7f4e487b7100000000000000000000000000000000000000000000000000000000600052601160045260246000fd5b60006112a682610cbd565b91506112b183610cbd565b9250827fffffffffffffffffffffffffffffffffffffffffffffffffffffffffffffffff038211156112e6576112e561126c565b5b828201905092915050565b60006112fc82610cbd565b915061130783610cbd565b92508282101561131a5761131961126c565b5b828203905092915050565b600061133082610cbd565b91507fffffffffffffffffffffffffffffffffffffffffffffffffffffffffffffffff8214156113635761136261126c565b5b60018201905091905056fea26469706673582212206565d78718cbaebf673b6d2762e1d4cd2b0dc33717c3030748f320e3c75fa0ec64736f6c634300080c0033",
  "immutableReferences": {},
  "source": "// SPDX-License-Identifier: UNLICENSED\n\npragma solidity ^0.8.4;\n\n/**\n * Blind auction allows bidding within an allotted time.\n * Bids can be faked to gain advantage over others.\n */\ncontract BlindAuction {\n    address payable public beneficiary;\n    address public highestBidder;\n    uint256 public highestBid;\n    // time period for the bids\n    uint256 public biddingEnd;\n    // time bids can be revealed\n    uint256 public revealEnd;\n    bool public ended;\n\n    struct Bid {\n        bytes32 blindedBid;\n        uint256 deposit;\n    }\n    // allowed withdrawals of previous bids\n    mapping(address => uint256) public pendingReturns;\n    mapping(address => Bid[]) public bids;\n\n    event AuctionEnded(address winner, uint256 highestBid);\n    event Refund(address recipient, uint256 refund);\n    event BidIndex(uint256 index);\n    event Withdraw(uint256 amount);\n\n    /// Called too early. Try later at `time`.\n    error TooEarly(uint256 time);\n    /// Called too late.\n    error TooLate(uint256 time);\n    /// Called already.\n    error AuctionEndAlreadyCalled();\n    /// Unmatched length.\n    error UnmatchedLength();\n\n    modifier onlyBefore(uint256 time) {\n        if (block.timestamp >= time) revert TooLate(time);\n        _;\n    }\n\n    modifier onlyAfter(uint256 time) {\n        if (block.timestamp <= time) revert TooEarly(time);\n        _;\n    }\n\n    /**\n     * Initialize the smart contract\n     * @param biddingTime period in seconds\n     * @param revealTime period in seconds after the bidding ended\n     * @param beneficiaryAddress receives the highest bid after the bidding ends.\n     */\n    constructor(\n        uint256 biddingTime,\n        uint256 revealTime,\n        address payable beneficiaryAddress\n    ) {\n        beneficiary = beneficiaryAddress;\n        biddingEnd = block.timestamp + biddingTime;\n        revealEnd = biddingEnd + revealTime;\n    }\n\n    function placeBid(address bidder, uint256 value)\n        internal\n        returns (bool success)\n    {\n        if (value <= highestBid) return false;\n        // first time, highestBidder is initialized by default to 0 address\n        if (highestBidder != address(0))\n            // accumulate previous highest bid by same bidder\n            pendingReturns[highestBidder] += highestBid;\n\n        highestBid = value;\n        highestBidder = bidder;\n        return true;\n    }\n\n    function createBlindedBid(\n        uint256 value,\n        bool fake,\n        bytes32 secret\n    ) external pure returns (bytes32) {\n        return keccak256(abi.encodePacked(value, fake, secret));\n    }\n\n    /**\n     * Place a blinded bid with\n     * `blindedBid` = keccak256(abi.encodePacked(value, fake, secret)).\n     * The sent ether is only refunded if the bid is correctly revealed in the\n     * revealing phase. The bid is valid if the ether sent together with the bid\n     * is at least \"value\" and \"fake\" is not true. Setting \"fake\" to true and\n     * sending not the exact amount are ways to hide the real bid but still\n     * make the required deposit. The same address can make multiple bids.\n     */\n    function bid(bytes32 blindedBid) external payable onlyBefore(biddingEnd) {\n        bids[msg.sender].push(\n            Bid({blindedBid: blindedBid, deposit: msg.value})\n        );\n        emit BidIndex(bids[msg.sender].length - 1);\n    }\n\n    /**\n     * Reveal your bids. You will get a refund for all correctly blinded\n     * invalid bids and for all bids except for the totally highest.\n     * @param values list of bid amount in the same order when bid was added.\n     * @param fakes list of flags in the same order indicating the real or fake bids when bid was added.\n     * @param secrets list of secrets attached in the same order when the bid was added.\n     */\n    function reveal(\n        uint256[] calldata values,\n        bool[] calldata fakes,\n        bytes32[] calldata secrets\n    ) external onlyAfter(biddingEnd) onlyBefore(revealEnd) {\n        uint256 length = bids[msg.sender].length;\n        if (\n            values.length != length &&\n            fakes.length != length &&\n            secrets.length != length\n        ) revert UnmatchedLength();\n\n        uint256 refund;\n        for (uint256 i = 0; i < length; i++) {\n            Bid storage bidToCheck = bids[msg.sender][i];\n\n            (uint256 value, bool fake, bytes32 secret) = (\n                values[i],\n                fakes[i],\n                secrets[i]\n            );\n\n            // verify the hash and skip invalid bid hash\n            if (\n                bidToCheck.blindedBid !=\n                keccak256(abi.encodePacked(value, fake, secret))\n            ) {\n                // Bid was not actually revealed.\n                // Do not refund deposit and continue to next iteration.\n                continue;\n            }\n\n            // from here the bid is valid so add up refunds\n            refund += bidToCheck.deposit;\n\n            if (!fake && bidToCheck.deposit >= value) {\n                // place real bid and deduct from accumulated refund\n                if (placeBid(msg.sender, value)) refund -= value;\n            }\n            // Make it impossible for the sender to re-claim the same deposit.\n            bidToCheck.blindedBid = bytes32(0);\n        }\n        payable(msg.sender).transfer(refund);\n        emit Refund(msg.sender, refund);\n    }\n\n    // Withdraw a bid that was overbid.\n    function withdraw() external {\n        uint256 amount = pendingReturns[msg.sender];\n        if (amount > 0) {\n            // It is important to set this to zero because the recipient can\n            // call this function again as part of the receiving call before\n            // `transfer` returns.\n            // Ref: conditions -> effects -> interaction\n            pendingReturns[msg.sender] = 0;\n            payable(msg.sender).transfer(amount);\n        }\n        emit Withdraw(amount);\n    }\n\n    // End the auction and send the highest bid to the beneficiary.\n    function auctionEnd() external onlyAfter(revealEnd) {\n        if (ended) revert AuctionEndAlreadyCalled();\n        emit AuctionEnded(highestBidder, highestBid);\n        // end early to avoid re-entrancy\n        ended = true;\n\n        beneficiary.transfer(highestBid);\n    }\n}\n",
  "sourcePath": "E:\\PROGRAMMING\\WORKSPACE\\PROJECTS\\blind-auction-web3\\contracts\\BlindAuction.sol",
  "compiler": {
    "name": "solc",
    "version": "0.8.12+commit.f00d7308.Emscripten.clang"
  },
  "schemaVersion": "3.4.10",
  "updatedAt": "2022-10-08T20:29:13.811Z",
  "networkType": "ethereum",
  "devdoc": {
    "kind": "dev",
    "methods": {
      "constructor": {
        "params": {
          "beneficiaryAddress": "receives the highest bid after the bidding ends.",
          "biddingTime": "period in seconds",
          "revealTime": "period in seconds after the bidding ended"
        }
      },
      "reveal(uint256[],bool[],bytes32[])": {
        "params": {
          "fakes": "list of flags in the same order indicating the real or fake bids when bid was added.",
          "secrets": "list of secrets attached in the same order when the bid was added.",
          "values": "list of bid amount in the same order when bid was added."
        }
      }
    },
    "version": 1
  },
  "userdoc": {
    "errors": {
      "AuctionEndAlreadyCalled()": [
        {
          "notice": "Called already."
        }
      ],
      "TooEarly(uint256)": [
        {
          "notice": "Called too early. Try later at `time`."
        }
      ],
      "TooLate(uint256)": [
        {
          "notice": "Called too late."
        }
      ],
      "UnmatchedLength()": [
        {
          "notice": "Unmatched length."
        }
      ]
    },
    "kind": "user",
    "methods": {
      "bid(bytes32)": {
        "notice": "Place a blinded bid with `blindedBid` = keccak256(abi.encodePacked(value, fake, secret)). The sent ether is only refunded if the bid is correctly revealed in the revealing phase. The bid is valid if the ether sent together with the bid is at least \"value\" and \"fake\" is not true. Setting \"fake\" to true and sending not the exact amount are ways to hide the real bid but still make the required deposit. The same address can make multiple bids."
      },
      "constructor": {
        "notice": "Initialize the smart contract"
      },
      "reveal(uint256[],bool[],bytes32[])": {
        "notice": "Reveal your bids. You will get a refund for all correctly blinded invalid bids and for all bids except for the totally highest."
      }
    },
    "notice": "Blind auction allows bidding within an allotted time. Bids can be faked to gain advantage over others.",
    "version": 1
  }
}